:100000000C9462000C948A000C948A000C948A0070
:100010000C948A000C948A000C948A000C948A0038
:100020000C948A000C948A000C948A000C948A0028
:100030000C948A000C948A000C948A000C948A0018
:100040000C940C060C948A000C948A000C948A0080
:100050000C948A000C948A000C948A000C948A00F8
:100060000C9456060C948A0000000000240027001F
:100070002A0000000000250028002B0000000008D6
:10008000000201000003040700000000000000005F
:1000900000000000230026002900040404040404D6
:1000A0000404020202020202030303030303010227
:1000B00004081020408001020408102001020408F6
:1000C0001020840711241FBECFEFD8E0DEBFCDBFC4
:1000D00011E0A0E0B1E0E2E9F7E102C005900D9285
:1000E000AC34B107D9F722E0ACE4B1E001C01D9215
:1000F000AB31B207E1F710E0C2E6D0E004C02197CF
:10010000FE010E94BC0BC136D107C9F70E94BB0794
:100110000C94C70B0C9400002091F5019091F40110
:10012000213208F04AC08091D1018111FCCF32E028
:100130003093D10131E03093D0013FEF3093CF01C4
:100140001092CE012093CD01A4EDB1E04DEA51E033
:10015000FA013E2F341B321718F43D913193F9CF39
:100160001092AC012091AC01990F922B9093AC01AD
:100170009091AB01913061F41092AB019091AC0180
:100180009093BB009091BC0093FDF8CF95EC01C01B
:1001900095EE9093BC009091D1019230E1F3909153
:1001A000CF019F3F79F08091CF01803241F0809163
:1001B000CF01803331F084E005C081E003C082E0EC
:1001C00001C083E01092D3011092F5011092D20188
:1001D0000895CF92DF92EF92FF920F931F93CF93E8
:1001E000DF936C017A018B01C0E0D0E0CE15DF0512
:1001F00089F0D8016D918D01D601ED91FC910190AE
:10020000F081E02DC6010995892B11F47E0102C011
:100210002196ECCFC701DF91CF911F910F91FF90F5
:10022000EF90DF90CF90089590E0FC01E458FF4FED
:100230003491FC01E255FF4F2491FC01E656FF4F3B
:10024000E491EE2309F43BC0332339F1333091F0CC
:1002500038F43130A9F0323001F584B58F7D12C009
:10026000373091F03830A1F03430B9F4809180000B
:100270008F7D03C0809180008F77809380000DC0B8
:1002800084B58F7784BD09C08091B0008F7703C09B
:100290008091B0008F7D8093B000F0E0EE0FFF1FE3
:1002A000EE58FF4FA591B4918FB7F894EC9161117E
:1002B00003C020952E2301C02E2B2C938FBF0895B1
:1002C000CF93DF9390E0FC01E255FF4F2491FC01B6
:1002D000E656FF4F8491882361F190E0880F991FC3
:1002E000FC01E859FF4FC591D491FC01EE58FF4F36
:1002F000A591B491611109C09FB7F89488812095A8
:1003000082238883EC912E230BC0623061F49FB767
:10031000F8943881822F809583238883EC912E2B4B
:100320002C939FBF06C08FB7F894E8812E2B2883AB
:100330008FBFDF91CF9108953FB7F89480919A01D4
:1003400090919B01A0919C01B0919D0126B5A89B25
:1003500005C02F3F19F00196A11DB11D3FBFBA2F57
:10036000A92F982F8827820F911DA11DB11DBC01B7
:10037000CD0142E0660F771F881F991F4A95D1F77C
:1003800008958F929F92AF92BF92CF92DF92EF9299
:10039000FF926B017C010E949C014B015C01C11426
:1003A000D104E104F104F1F00E949C01DC01CB01D5
:1003B00088199909AA09BB09883E9340A105B1058E
:1003C00070F321E0C21AD108E108F10888EE880E26
:1003D00083E0981EA11CB11CC114D104E104F104F6
:1003E00019F7DDCFFF90EF90DF90CF90BF90AF90E7
:1003F0009F908F90089521E001C0220F6A95EAF73F
:10040000DC011C962C931C971A965C934E931997BB
:10041000ED91FC910484F585E02D60E00994DC0108
:10042000ED91FC910684F785E02D41E0099581E08E
:1004300090E00895DC01ED91FC910684F785E02DB4
:1004400040E00994CF92DF92EF92FF920F931F93B7
:10045000CF93DF931F92CDB7DEB7162F877028E0BA
:10046000829FC0011124682F606482E092E079834A
:100470000E941A0283E790E00197F1F7C12E79817B
:10048000D72E8601085F1F4F8BE9E82EF12CF6016D
:1004900061916F0182E092E00E940F02C701019713
:1004A000F1F7C016D10699F70F90DF91CF911F9108
:1004B0000F91FF90EF90DF90CF900895CF93DF934F
:1004C000CDB7DEB728970FB6F894DEBF0FBECDBF0D
:1004D000682F1D8280E48E8394E19F8394E5988742
:1004E00019828A8380E18B8380E58C838091090265
:1004F00021E0811120E0219590910A0230E0FE0177
:10050000E20FF31F903121F4843011F4918101C086
:100510009581690F606882E092E028960FB6F894A2
:10052000DEBF0FBECDBFDF91CF910C941A020F93A7
:100530001F93CF93DF93EC01423018F08C818860D9
:100540008C834F836887222329F0413019F48C81F2
:1005500084608C8364E670E080E090E00E94C101DA
:100560006C8164FD31C0E881F9810684F785E02D56
:1005700042E063E0CE0109958BE496E40197F1F740
:10058000E881F9810684F785E02D42E063E0CE0141
:10059000099503E512E0C8010197F1F7E881F981B7
:1005A0000684F785E02D42E063E0CE010995C8019D
:1005B0000197F1F7E881F9810684F785E02D42E0A3
:1005C00062E0CE01099517C06062CE010E941A0256
:1005D0008BE496E40197F1F76C816062CE010E9492
:1005E0001A0203E512E0C8010197F1F76C8160621D
:1005F000CE010E941A02C8010197F1F76C81606276
:10060000CE010E941A028BEE90E00197F1F784E090
:100610008D836CE0CE010E941A0261E0CE010E943F
:100620001A028BE39FE10197F1F782E08E8366E087
:10063000CE010E941A02E881F9810484F585E02D3B
:100640006FEFCE01DF91CF911F910F910994089523
:10065000089585ED8093BC008091BC0084FDFCCFA3
:100660001092D101089540916E01262F30E0240FA1
:10067000311D21323105DCF42091D1012430C9F43F
:10068000FC0180E090E0861758F430916E012191D2
:10069000DC01A45BBE4FA30FB11D2C930196F3CFD9
:1006A00080916E01680F60936E0180E0089581E093
:1006B000089582E00895089581E090E030919401DA
:1006C00020919301321710F480E090E0919581958C
:1006D000910908958091940190919301891730F4C4
:1006E0008F5F8093940180E090E008958FEF9FEFFB
:1006F00008958091930190E020919401821B9109CB
:100700000895CF92DF92EF92FF920F931F93CF93B2
:10071000DF937C01262F972F8A018091D2018823B5
:1007200091F0C62FD72F6E01C40ED51ECC15DD0556
:1007300071F06991D701ED91FC910190F081E02D6C
:10074000C7010995F3CF642F822F0E943303C8019C
:10075000DF91CF911F910F91FF90EF90DF90CF909D
:100760000895CF93DF931F92CDB7DEB769832091B1
:10077000D2012223D1F02091F501203240F021E076
:1007800030E0FC013383228380E090E015C080914B
:10079000D301E82FF0E0EC52FE4F998190838F5FF8
:1007A0008093D3018093F50105C061E0CE010196ED
:1007B0000E94330381E090E00F90DF91CF91089584
:1007C000FC0123812223B9F09181909569236083F4
:1007D000828191E09093D2018093F4011092D30131
:1007E0001092F50186EF91E00E94B1030E948C0007
:1007F000282F30E002C020E030E081E090E0232BA1
:1008000011F080E090E00895EF92FF920F931F9314
:10081000CF938C01FC01759684E0C0E060FF02C0BC
:100820009081C92B6695815031968111F7CF413067
:1008300011F4F8014489F8018585C82BC42B78018F
:10084000FEE0EF0EF11CF80162896C2BC7010E94DB
:10085000E003F801628960956C23C701CF911F9175
:100860000F91FF90EF900C94E0030F931F93CF93A1
:10087000DF93062F0F70423019F440E0602F10C054
:10088000142F262FEC0130E0B90184E075956795AF
:100890008A95E1F7CE010E940404412F602FCE011A
:1008A000DF91CF911F910F910C940404FC0184857A
:1008B0008823A9F0218532852115310519F46111AC
:1008C00006C007C02130310521F4611102C08587BF
:1008D00001C015866585CF010E960C94E00308953E
:1008E000EF92FF920F931F93CF93DF93EC01062FAC
:1008F000F42EE22E8B85888B109294011092930136
:100900001092D3011092F5011092D10111E01093D1
:10091000D0011092AB0161E082E10E94140161E01C
:1009200083E10E9414018091B9008E7F8093B90009
:100930008091B9008D7F8093B90088E48093B800DE
:1009400085E48093BC0088891093D2018093F401E0
:100950001092D3011092F5010E948C0091E0811158
:1009600090E0998B992329F086EF91E00E946A0329
:100970008E878989882339F01F861C8260E0CE012A
:100980000E960E94E0032E2D4F2D602FCE01DF9199
:10099000CF911F910F91FF90EF900C9497020895C3
:1009A00080E090E00895009769F0FC01019000203C
:1009B000E9F73197AF01481B590BBC0182E092E087
:1009C0000C94E90080E090E008958F929F92AF929E
:1009D000BF920F931F93CF93DF93CDB7DEB7A1974D
:1009E0000FB6F894DEBF0FBECDBF19A2423008F497
:1009F0004AE08E010F5D1F4F842E912CA12CB12C4B
:100A0000A50194010E945E09E62FB901CA010150B7
:100A10001109EA3014F4E05D01C0E95CD801EC93FF
:100A2000232B242B252B61F7C8010E94D304A19608
:100A30000FB6F894DEBF0FBECDBFDF91CF911F91EF
:100A40000F91BF90AF909F908F9008954F925F92BB
:100A50006F927F928F929F92AF92BF92CF92DF92CE
:100A6000EF92FF926B017C01B42E9B01AC010E94BE
:100A7000B70B882319F08EE391E027C026013701D8
:100A8000E89477F82FEF3FEF4FE75FE7C301B2013C
:100A90000E94B70B81110DC02FEF3FEF4FE75FE7CB
:100AA000C301B2010E94ED0918161CF482E491E022
:100AB0000CC02FEF3FEF4FE75FE4C701B6010E9484
:100AC000450B181684F486E491E0FF90EF90DF90D8
:100AD000CF90BF90AF909F908F907F906F905F90DE
:100AE0004F900C94D3042FEF3FEF4FE75FECC7011B
:100AF000B6010E94ED0987FDE6CF20E030E0A901B4
:100B0000C701B6010E94ED0987FF11C0E091020202
:100B1000F09103020190F081E02D6DE282E092E01D
:100B200009954C01F7FAF094F7F8F09402C0812C83
:100B3000912CA12C60E070E080E09FE3AB1441F0C9
:100B400020E030E040E251E40E94F209A394F6CFA5
:100B50009B01AC01C701B6010E9481092B013C0138
:100B60000E94640A6B017C010E94930A9B01AC0104
:100B7000C301B2010E9480092B013C014AE0C70178
:100B8000B6010E94E5047C01E80CF91CBB2069F069
:100B9000E0910202F09103020190F081E02D6EE2FB
:100BA00082E092E00995E80EF91EDB2CDD2021F1B0
:100BB00020E030E040E251E4C301B2010E944A0B60
:100BC0002B013C010E94640A4B01A12CB12C4AE08C
:100BD000C501B4010E94E504E80EF91EC501B40187
:100BE0000E94930A9B01AC01C301B2010E948009DB
:100BF0002B013C01DA94DACFC701FF90EF90DF9030
:100C0000CF90BF90AF909F908F907F906F905F90AC
:100C10004F9008950E94C20B1F920F920FB60F9231
:100C200011242F933F938F939F93AF93BF93809102
:100C3000960190919701A0919801B09199013091FE
:100C4000950123E0230F2D3720F40196A11DB11D3E
:100C500005C026E8230F0296A11DB11D2093950122
:100C60008093960190939701A0939801B093990176
:100C700080919A0190919B01A0919C01B0919D015E
:100C80000196A11DB11D80939A0190939B01A093A1
:100C90009C01B0939D01BF91AF919F918F913F9126
:100CA0002F910F900FBE0F901F9018951F920F92CB
:100CB0000FB60F9211242F933F934F935F936F932F
:100CC0007F938F939F93AF93BF93EF93FF93809105
:100CD000B900887F803609F49CC068F5883209F431
:100CE0005BC090F4803109F454C038F4882309F4CF
:100CF000F6C0883009F44DC0F6C0883109F44CC004
:100D0000803209F45DC0EFC0803409F468C048F453
:100D1000803309F455C0883309F0E5C08093CF01D2
:100D2000D8C0803509F44FC0883509F45DC08834D7
:100D300009F0D9C0D6C0883909F4C7C0A8F48837EB
:100D400009F467C038F4883609F463C0803709F4C1
:100D500060C0C9C0883809F4B8C0803909F45FC0E0
:100D6000803809F0C0C05BC0803B09F486C038F40D
:100D7000803A09F466C0883A09F47FC0B4C0803C68
:100D800009F4A7C0883C09F4A4C0883B09F48AC0D0
:100D9000AAC08091AC0110C09091CE018091CD018C
:100DA000981770F5E091CE0181E08E0F8093CE010F
:100DB000F0E0E355FE4F80818093BB0085EC86C058
:100DC0008093CF018EC0E091CE0181E08E0F8093A1
:100DD000CE018091BB00F0E0E355FE4F80839091FF
:100DE000CE018091CD016EC0E091CE0181E08E0FE9
:100DF0008093CE018091BB00F0E0E355FE4F8083ED
:100E00008091D00181116DC081E08093AB0184EAB3
:100E100061C083E08093D10110929201CFCF809185
:100E20009201803208F051C0E091920181E08E0F72
:100E3000809392018091BB00F0E0EE58FE4F8083DA
:100E4000BDCF85EC8093BC001092D10180919201BE
:100E5000803230F4E0919201F0E0EE58FE4F1082C3
:100E60006091920170E0E0917001F091710182E770
:100E700091E009951092920136C084E08093D101EF
:100E800010926F0110926E01E0916C01F0916D0172
:100E9000099580916E01811105C081E080936E01FA
:100EA00010924C01E0916F0181E08E0F80936F01F1
:100EB000F0E0E45BFE4F80818093BB0090916F0176
:100EC00080916E01981708F479CF85E88093BC0073
:100ED0000AC085EC8093BC001092D10104C010922E
:100EE000CF010E942903FF91EF91BF91AF919F9194
:100EF0008F917F916F915F914F913F912F910F90C3
:100F00000FBE0F901F901895E6EFF1E0138212824A
:100F100088EE93E0A0E0B0E084839583A683B78356
:100F20008CE191E091838083E2E0F2E0138212820F
:100F30008EE291E091838083108A8FEF87871686F7
:100F4000118A87E28387148615861286118684E0CB
:100F5000828B82E0838B81E0848B80E1858B80E2D1
:100F6000868B80E4878B80E8808F40E050E063E0F0
:100F7000CF010C94FB01CF93DF9300D0CDB7DEB748
:100F8000789484B5826084BD84B5816084BD85B564
:100F9000826085BD85B5816085BD80916E00816070
:100FA00080936E0010928100809181008260809316
:100FB0008100809181008160809381008091800018
:100FC0008160809380008091B10084608093B10043
:100FD0008091B00081608093B00080917A0084603D
:100FE00080937A0080917A00826080937A00809169
:100FF0007A00816080937A0080917A008068809383
:101000007A001092C10020E042E060E182E092E0CC
:101010000E94700460E171E081E00E94220268E0B9
:1010200071E082E00E94220260E071E083E00E94B1
:10103000220261E08DE00E9460015BE9A52EB12CE7
:1010400060E0862E60E0962EC12C70ECD72E79E7FA
:10105000E72E74ECF72E61E08DE00E941401E0EBC6
:10106000F0E02490ECE9F0E08491E82FF0E0EE0F5E
:10107000FF1FE057FF4F059114911092A6011092A7
:10108000A7011092A8011092A9011092AA0161E093
:1010900082E00E94600160E082E00E94140161E051
:1010A00070E080E090E00E94C10161E082E00E9477
:1010B0001401C5010197F1F760E082E00E94600130
:1010C00020E931E0F8018081822121F421503109A9
:1010D000C9F7E3C020E931E0F8018081822121F0E5
:1010E00021503109C9F7D9C028E230E8312C80E914
:1010F00091E0F8014081422119F40197D1F7CDC068
:101100002A8339830E949C012B013C0180E991E0F4
:101110002A813981F8014081422119F00197D1F7E4
:10112000BCC02A8339830E949C01DC01CB01841955
:101130009509A609B7092A8139818997A105B105C1
:1011400038F0E32DF0E0E256FE4F8085832B808758
:10115000832F90E095958795009711F0382F02C066
:10116000339430E8215009F0C2CF61E082E00E9460
:10117000600161E082E00E9414016091A60170E0CC
:10118000762F66278091A701682B80E090E00E946F
:10119000930A2DEC3CEC4CEC5DE30E944A0B60930F
:1011A0009E0170939F018093A0019093A1011091E3
:1011B000A801612F6F7770E0762F66278091A901D3
:1011C000682B80E090E00E94930A2DEC3CEC4CEC04
:1011D0005DE30E944A0B17FD09C06093A201709362
:1011E000A3018093A4019093A5010BC0DC01CB0166
:1011F000B0588093A2019093A301A093A401B0934F
:10120000A50180E00E945E0261E082E092E00E941F
:101210000F0282E00E945E026091A2017091A30120
:101220008091A4019091A50141E00E94260586E0ED
:101230000E945E0262E082E092E00E940F0289E07A
:101240000E945E0263E082E092E00E940F028BE067
:101250000E945E0260919E0170919F018091A001A9
:101260009091A10141E00E9426058FE00E945E025C
:101270008AE491E00E94D30460E08DE00E941401B2
:1012800068EE73E080E090E00E94C1018114910457
:1012900009F4E1CE0E940000DECEC0929E01D09201
:1012A0009F01E092A001F092A101C092A201D09210
:1012B000A301E092A401F092A501A3CFA1E21A2E0E
:1012C000AA1BBB1BFD010DC0AA1FBB1FEE1FFF1FEA
:1012D000A217B307E407F50720F0A21BB30BE40B3A
:1012E000F50B661F771F881F991F1A9469F7609581
:1012F0007095809590959B01AC01BD01CF0108953B
:101300005058BB27AA270E9498090C940B0B0E94E7
:10131000FD0A38F00E94040B20F039F49F3F19F4C5
:1013200026F40C94FA0A0EF4E095E7FB0C94F40A08
:10133000E92F0E941C0B58F3BA1762077307840742
:10134000950720F079F4A6F50C943E0B0EF4E09589
:101350000B2EBA2FA02D0B01B90190010C01CA016F
:10136000A0011124FF27591B99F0593F50F4503E1A
:1013700068F11A16F040A22F232F342F4427585F0C
:10138000F3CF469537952795A795F0405395C9F724
:101390007EF41F16BA0B620B730B840BBAF09150DC
:1013A000A1F0FF0FBB1F661F771F881FC2F70EC07B
:1013B000BA0F621F731F841F48F48795779567954E
:1013C000B795F7959E3F08F0B0CF9395880F08F03A
:1013D0009927EE0F9795879508950E94D00A08F4F3
:1013E00081E008950E94060A0C940B0B0E94040BE6
:1013F00058F00E94FD0A40F029F45F3F29F00C9458
:10140000F40A51110C943F0B0C94FA0A0E941C0B25
:1014100068F39923B1F3552391F3951B550BBB2723
:10142000AA2762177307840738F09F5F5F4F220F68
:10143000331F441FAA1FA9F335D00E2E3AF0E0E85F
:1014400032D091505040E695001CCAF72BD0FE2FA9
:1014500029D0660F771F881FBB1F2617370748073D
:10146000AB07B0E809F0BB0B802DBF01FF279358F5
:101470005F4F3AF09E3F510578F00C94F40A0C94BB
:101480003F0B5F3FE4F3983ED4F3869577956795DD
:10149000B795F7959F5FC9F7880F911D969587952A
:1014A00097F90895E1E0660F771F881FBB1F621749
:1014B00073078407BA0720F0621B730B840BBA0B07
:1014C000EE1F88F7E09508950E94240B88F09F573F
:1014D00098F0B92F9927B751B0F0E1F0660F771F58
:1014E000881F991F1AF0BA95C9F714C0B13091F04E
:1014F0000E943E0BB1E008950C943E0B672F782FAD
:101500008827B85F39F0B93FCCF386957795679512
:10151000B395D9F73EF490958095709561957F4F7E
:101520008F4F9F4F0895E89409C097FB3EF4909524
:101530008095709561957F4F8F4F9F4F9923A9F0AC
:10154000F92F96E9BB279395F6958795779567953B
:10155000B795F111F8CFFAF4BB0F11F460FF1BC07F
:101560006F5F7F4F8F4F9F4F16C0882311F096E912
:1015700011C0772321F09EE8872F762F05C06623C0
:1015800071F096E8862F70E060E02AF09A95660F79
:10159000771F881FDAF7880F9695879597F9089532
:1015A000990F0008550FAA0BE0E8FEEF1616170674
:1015B000E807F907C0F012161306E407F50798F0DC
:1015C000621B730B840B950B39F40A2661F0232BF5
:1015D000242B252B21F408950A2609F4A140A69571
:1015E0008FEF811D811D089597F99F6780E870E056
:1015F00060E008959FEF80EC089500240A94161689
:10160000170618060906089500240A9412161306F0
:10161000140605060895092E0394000C11F488237E
:1016200052F0BB0F40F4BF2B11F460FF04C06F5F9A
:101630007F4F8F4F9F4F089557FD9058440F551F70
:1016400059F05F3F71F04795880F97FB991F61F044
:101650009F3F79F087950895121613061406551FBB
:10166000F2CF4695F1DF08C0161617061806991F27
:10167000F1CF86957105610508940895E894BB271C
:1016800066277727CB0197F908950E94D00A08F4BE
:101690008FEF08950E945D0B0C940B0B0E94FD0AC6
:1016A00038F00E94040B20F0952311F00C94F40AFA
:1016B0000C94FA0A11240C943F0B0E941C0B70F33B
:1016C000959FC1F3950F50E0551F629FF001729FE7
:1016D000BB27F00DB11D639FAA27F00DB11DAA1FF6
:1016E000649F6627B00DA11D661F829F2227B00D43
:1016F000A11D621F739FB00DA11D621F839FA00DCE
:10170000611D221F749F3327A00D611D231F849F1D
:10171000600D211D822F762F6A2F11249F57504074
:101720009AF0F1F088234AF0EE0FFF1FBB1F661FEF
:10173000771F881F91505040A9F79E3F510580F0B8
:101740000C94F40A0C943F0B5F3FE4F3983ED4F3FF
:10175000869577956795B795F795E7959F5FC1F75C
:10176000FE2B880F911D9695879597F908950E94F5
:10177000D00A880B990B0895EE0FFF1F0590F49186
:10178000E02D099481E090E0F8940C94C70BF89454
:02179000FFCF89
:1017920004040A0A1111110E0814080304040300B8
:1017A200040A0A0E0E1F1F0E00000000B10381037F
:1017B200D0045B0379036A035C03000000000F029C
:1017C200E900D004CF047004FB01560435046E61B5
:0C17D2006E00696E66006F7666002500F0
:107E0000112484B714BE81FFF0D085E080938100F7
:107E100082E08093C00088E18093C10086E0809377
:107E2000C20080E18093C4008EE0C9D0259A86E02C
:107E300020E33CEF91E0309385002093840096BBD3
:107E4000B09BFECF1D9AA8958150A9F7CC24DD24C4
:107E500088248394B5E0AB2EA1E19A2EF3E0BF2EE7
:107E6000A2D0813461F49FD0082FAFD0023811F036
:107E7000013811F484E001C083E08DD089C08234E0
:107E800011F484E103C0853419F485E0A6D080C0E4
:107E9000853579F488D0E82EFF2485D0082F10E0AE
:107EA000102F00270E291F29000F111F8ED06801E7
:107EB0006FC0863521F484E090D080E0DECF843638
:107EC00009F040C070D06FD0082F6DD080E0C81688
:107ED00080E7D80618F4F601B7BEE895C0E0D1E017
:107EE00062D089930C17E1F7F0E0CF16F0E7DF06D8
:107EF00018F0F601B7BEE89568D007B600FCFDCFD4
:107F0000A601A0E0B1E02C9130E011968C91119780
:107F100090E0982F8827822B932B1296FA010C0160
:107F200087BEE89511244E5F5F4FF1E0A038BF0790
:107F300051F7F601A7BEE89507B600FCFDCF97BE46
:107F4000E89526C08437B1F42ED02DD0F82E2BD052
:107F50003CD0F601EF2C8F010F5F1F4F84911BD097
:107F6000EA94F801C1F70894C11CD11CFA94CF0C13
:107F7000D11C0EC0853739F428D08EE10CD085E9AC
:107F80000AD08FE07ACF813511F488E018D01DD067
:107F900080E101D065CF982F8091C00085FFFCCF94
:107FA0009093C60008958091C00087FFFCCF809118
:107FB000C00084FD01C0A8958091C6000895E0E648
:107FC000F0E098E1908380830895EDDF803219F02E
:107FD00088E0F5DFFFCF84E1DECF1F93182FE3DFCA
:107FE0001150E9F7F2DF1F91089580E0E8DFEE27F6
:047FF000FF270994CA
:027FFE00040479
:0400000300007E007B
:00000001FF
