:100000000C9462000C948A000C948A000C948A0070
:100010000C948A000C948A000C948A000C948A0038
:100020000C948A000C948A000C948A000C948A0028
:100030000C948A000C948A000C948A000C948A0018
:100040000C9412060C948A000C948A000C948A007A
:100050000C948A000C948A000C948A000C948A00F8
:100060000C945C060C948A0000000000230026001B
:10007000290000000000240027002A0000000000E2
:10008000250028002B0004040404040404040202D4
:100090000202020203030303030301020408102007
:1000A0004080010204081020010204081020000012
:1000B0000008000201000003040700000000000027
:1000C00000008A0711241FBECFEFD8E0DEBFCDBFEE
:1000D00011E0A0E0B1E0E4E7F7E102C005900D9285
:1000E000A435B107D9F722E0A4E5B1E001C01D9223
:1000F000A334B207E1F710E0C2E6D0E004C02197D4
:10010000FE010E94AD0BC136D107C9F70E94C1079D
:100110000C94B80B0C94000030911D02313208F0A1
:100120004BC08091F9018111FCCF90911C0222E01B
:100130002093F90121E02093F8012FEF2093F7019C
:100140001092F6013093F501ECEFF1E0A5EDB1E08E
:1001500020E0321721F041914D932F5FFACF10929A
:10016000D4012091D401990F922B9093D4019091B6
:10017000D301913061F41092D3019091D401909306
:10018000BB009091BC0093FDF8CF95EC01C095EEBB
:100190009093BC009091F9019230E1F39091F701B6
:1001A0009F3F79F08091F701803241F08091F70113
:1001B000803331F084E005C081E003C082E001C0FB
:1001C00083E01092FB0110921D021092FA01089533
:1001D00090E0FC01E255FF4F2491FC01E656FF4FF1
:1001E0003491FC01EA57FF4FE491EE2309F43CC03F
:1001F000222339F1233091F038F42130A9F0223054
:1002000001F584B58F7D12C0273091F02830A1F020
:100210002430B9F4809180008F7D03C080918000EC
:100220008F77809380000DC084B58F7784BD09C01F
:100230008091B0008F7703C08091B0008F7D809354
:10024000B000F0E0EE0FFF1FE458FF4FA591B4910E
:100250009FB7F894611104C08C913095382302C087
:10026000EC913E2B3C939FBF0895CF93DF9390E09A
:10027000FC01E656FF4F2491FC01EA57FF4F8491A1
:10028000882361F190E0880F991FFC01EE58FF4F21
:10029000C591D491FC01E458FF4FA591B49161112F
:1002A00009C09FB7F8948881209582238883EC91B8
:1002B0002E230BC0623061F49FB7F8948881322FEF
:1002C000309583238883EC912E2B2C939FBF06C0FF
:1002D0008FB7F894E8812E2B28838FBFDF91CF91C1
:1002E00008953FB7F8948091CF019091D001A091EB
:1002F000D101B091D20126B5A89B05C02F3F19F0BE
:100300000196A11DB11D3FBFBA2FA92F982F882795
:10031000820F911DA11DB11DBC01CD0142E0660FF0
:10032000771F881F991F4A95D1F708958F929F9242
:10033000AF92BF92CF92DF92EF92FF926B017C015E
:100340000E9471014B015C01C114D104E104F1046C
:10035000F1F00E947101DC01CB0188199909AA0909
:10036000BB09883E9340A105B10570F321E0C21A94
:10037000D108E108F10888EE880E83E0981EA11CE0
:10038000B11CC114D104E104F10419F7DDCFFF90D1
:10039000EF90DF90CF90BF90AF909F908F90089597
:1003A000CF92DF92EF92FF920F931F93CF93DF9341
:1003B0006C017A018B01C0E0D0E0CE15DF0581F041
:1003C000D8016D918D01D601ED91FC910190F081E4
:1003D000E02DC6010995892B11F02196EECF7E0103
:1003E000C701DF91CF911F910F91FF90EF90DF90A8
:1003F000CF90089521E001C0220F6A95EAF7DC0151
:100400001C962C931C971A965C934E931997ED911A
:10041000FC910484F585E02D60E009940895089529
:10042000DC01ED91FC910684F785E02D41E0099512
:1004300081E090E00895DC01ED91FC910684F78560
:10044000E02D40E00994EF92FF920F931F93CF931A
:10045000DF938B01877098E0899FB001112460645D
:100460008AE292E00E941B0283E790E00197F1F795
:10047000E801085F1F4F8BE9E82EF12C69918AE2B1
:1004800092E00E941002C7010197F1F7C017D1074F
:10049000A9F7DF91CF911F910F91FF90EF900895F1
:1004A000CF93DF93CDB7DEB728970FB6F894DEBFB2
:1004B0000FBECDBF682F8091180190911901A091B6
:1004C0001A01B0911B018D839E83AF83B887809101
:1004D0001C0190911D01A0911E01B0911F01898303
:1004E0009A83AB83BC838091310221E0811120E0AB
:1004F00021959091320230E0FE01E20FF31F90311E
:1005000021F4843011F4918101C09581690F6068F4
:100510008AE292E028960FB6F894DEBF0FBECDBFF8
:10052000DF91CF910C941B020F931F93CF93DF9316
:10053000EC01423018F08C8188608C834F8368878F
:10054000222329F0413019F48C8184608C8364E685
:1005500070E080E090E00E9496016C8164FD31C003
:10056000E881F9810684F785E02D42E063E0CE0161
:1005700009958BE496E40197F1F7E881F981068407
:10058000F785E02D42E063E0CE01099503E512E036
:10059000C8010197F1F7E881F9810684F785E02D1C
:1005A00042E063E0CE010995C8010197F1F7E881C7
:1005B000F9810684F785E02D42E062E0CE010995DD
:1005C00017C06062CE010E941B028BE496E4019783
:1005D000F1F76C816062CE010E941B0203E512E01C
:1005E000C8010197F1F76C816062CE010E941B0285
:1005F000C8010197F1F76C816062CE010E941B0275
:100600008BEE90E00197F1F784E08D836CE0CE01F2
:100610000E941B0261E0CE010E941B028BE39FE15E
:100620000197F1F782E08E8366E0CE010E941B0203
:10063000E881F9810484F585E02D6FEFCE01DF912B
:10064000CF911F910F9109940895089585ED80939E
:10065000BC008091BC0084FDFCCF1092F90108958C
:1006600040919401262F30E0240F311D21323105B5
:10067000DCF42091F9012430C9F4FC0180E090E021
:10068000861758F4309194012191DC01AC58BE4F8B
:10069000A30FB11D2C930196F3CF80919401680FA5
:1006A0006093940180E0089581E0089582E00895C8
:1006B0000895E091BC018091BB01E81730F4F0E0AF
:1006C000EC5AFE4F808190E008958FEF9FEF0895E0
:1006D0009091BC018091BB01981750F4E92FF0E094
:1006E000EC5AFE4F208130E09F5F9093BC0102C026
:1006F0002FEF3FEFC90108958091BB0190E0209159
:10070000BC01821B91090895CF92DF92EF92FF9274
:100710000F931F93CF93DF937C01CB018A0120912C
:10072000FA01222389F0EB016B01C40ED51ECC1512
:10073000DD0569F06991D701ED91FC910190F0819F
:10074000E02DC7010995F3CF642F0E943003C80143
:10075000DF91CF911F910F91FF90EF90DF90CF909D
:100760000895CF93DF931F92CDB7DEB769832091B1
:10077000FA012223D1F020911D02203240F021E025
:1007800030E0FC013383228380E090E015C080914B
:10079000FB01E82FF0E0E450FE4F998190838F5FDA
:1007A0008093FB0180931D0205C061E0CE0101969C
:1007B0000E94300381E090E00F90DF91CF91089587
:1007C000FC0183818823C1F0962F618160956923A4
:1007D0006083828191E09093FA0180931C021092D1
:1007E000FB0110921D028EE192E00E94B1030E9473
:1007F0008C00282F30E002C020E030E081E090E063
:10080000232B11F080E090E00895EF92FF920F9378
:100810001F93CF938C01FC0184E0C0E060FF02C015
:100820009589C92B6695815031968111F7CF41305A
:1008300011F4F8014489F8018585C82BC42B78018F
:10084000FEE0EF0EF11CF80162896C2BC7010E94DB
:10085000E003F801628960956C23C701CF911F9175
:100860000F91FF90EF900C94E0030F931F93CF93A1
:10087000DF93062F0F70423019F440E0602F0EC056
:10088000142FEC0170E084E0759567958A95E1F787
:10089000CE010E940504412F602FCE01DF91CF9140
:1008A0001F910F910C940504FC0184858823A9F005
:1008B000218532852115310519F4611106C007C063
:1008C0002130310521F4611102C0858701C01586F0
:1008D0006585CF010E960C94E0030895EF92FF9288
:1008E0000F931F93CF93DF93EC01062FF42EE22E8C
:1008F0008B85888B1092BC011092BB011092FB017A
:1009000010921D021092F90111E01093F80110925B
:10091000D30161E082E10E94E80061E083E10E948E
:10092000E8008091B9008E7F8093B9008091B90072
:100930008D7F8093B90088E48093B80085E480932C
:10094000BC008EE092E09093BA018093B9018FE0F1
:1009500092E09093B8018093B70188891093FA01CF
:1009600080931C021092FB0110921D020E948C00C9
:1009700091E0811190E0998B811105C08EE192E0A8
:100980000E9468038E878989882339F01F861C821C
:1009900060E0CE010E960E94E0032E2D4F2D602FB9
:1009A000CE01DF91CF911F910F91FF90EF900C94AA
:1009B0009402089580E090E00895009769F0FC01AA
:1009C00001900020E9F73197AF01481B590BBC019A
:1009D0008AE292E00C94D00180E090E008952F929A
:1009E0003F924F925F926F927F928F929F92AF92BF
:1009F000BF92CF92DF92EF92FF920F931F93CF930C
:100A0000DF93CDB7DEB7A4970FB6F894DEBF0FBE65
:100A1000CDBF4B015C01F42E9B01AC010E94A80BE1
:100A2000882319F086E491E027C024013501E89479
:100A300077F82FEF3FEF4FE75FE7C301B2010E9466
:100A4000A80B81110DC02FEF3FEF4FE75FE7C30108
:100A5000B2010E94DE0918161CF48AE491E00CC071
:100A60002FEF3FEF4FE75FE4C501B4010E94360B63
:100A700018162CF48EE491E00E94DD04B8C02FEF2C
:100A80003FEF4FE75FECC501B4010E94DE0987FD2F
:100A9000F1CF20E030E0A901C501B4010E94DE09D8
:100AA00087FF0BC06DE28AE292E00E9410023C01D7
:100AB000B7FAB094B7F8B09402C0612C712C10E072
:100AC00060E070E080E09FE3F11641F020E030E06C
:100AD00040E251E40E94E3091F5FF6CFA5019401B3
:100AE0000E9472094B015C010E94550A6AA3C72E3D
:100AF000D82EE92E19A2262F372F482F592F8E01D5
:100B00000F5D1F4F0BA31CA39AE0292E312C412C03
:100B1000512CCA01B901A20191010E944F09605DE7
:100B2000F80162938F01211531054105510589F7BF
:100B3000CF010E94DD048301080F191FFF2009F473
:100B400055C06AA17C2D8D2D9E2D0E94840A9B018B
:100B5000AC01C501B4010E9471094B015C016EE258
:100B60008AE292E00E941002080F191F8AE0282EE4
:100B7000312C412C512C20E030E040E251E4C50101
:100B8000B4010E943B0B4B015C010E94550A9B0182
:100B900040E050E019A2CBA0DCA0762E3AA3642E50
:100BA000E52ECA01B901A20191010E944F09605DC1
:100BB000F60162936F01211531054105510589F751
:100BC000CF010E94DD04080F191F672D7AA1862D21
:100BD0009E2D0E94840A9B01AC01C501B4010E94B4
:100BE00071094B015C01FA94F110C5CFC801A496BC
:100BF0000FB6F894DEBF0FBECDBFDF91CF911F912E
:100C00000F91FF90EF90DF90CF90BF90AF909F90AB
:100C10008F907F906F905F904F903F902F900895AE
:100C20000E94B30B1F920F920FB60F9211242F93B5
:100C30003F938F939F93AF93BF938091CB019091FC
:100C4000CC01A091CD01B091CE013091CA0123E039
:100C5000230F2D3720F40196A11DB11D05C026E8F4
:100C6000230F0296A11DB11D2093CA018093CB01D1
:100C70009093CC01A093CD01B093CE018091CF0190
:100C80009091D001A091D101B091D2010196A11D06
:100C9000B11D8093CF019093D001A093D101B09367
:100CA000D201BF91AF919F918F913F912F910F9062
:100CB0000FBE0F901F9018951F920F920FB60F92B4
:100CC00011242F933F934F935F936F937F938F9351
:100CD0009F93AF93BF93EF93FF938091B900887F69
:100CE000803609F49CC068F5883209F45BC090F442
:100CF000803109F454C038F4882309F4F6C08830F0
:100D000009F44DC0F6C0883109F44CC0803209F4B2
:100D10005DC0EFC0803409F468C048F4803309F442
:100D200055C0883309F0E5C08093F701D8C08035FD
:100D300009F44FC0883509F45DC0883409F0D9C082
:100D4000D6C0883909F4C7C0A8F4883709F467C049
:100D500038F4883609F463C0803709F460C0C9C02C
:100D6000883809F4B8C0803909F45FC0803809F0C8
:100D7000C0C05BC0803B09F486C038F4803A09F4F7
:100D800066C0883A09F47FC0B4C0803C09F4A7C0AB
:100D9000883C09F4A4C0883B09F48AC0AAC08091A9
:100DA000D40110C09091F6018091F501981770F56B
:100DB000E091F60181E08E0F8093F601F0E0EB52B6
:100DC000FE4F80818093BB0085EC86C08093F70145
:100DD0008EC0E091F60181E08E0F8093F601809144
:100DE000BB00F0E0EB52FE4F80839091F6018091C2
:100DF000F5016EC0E091F60181E08E0F8093F6015F
:100E00008091BB00F0E0EB52FE4F80838091F801AF
:100E100081116DC081E08093D30184EA61C083E0D9
:100E20008093F9011092B601CFCF8091B601803244
:100E300008F051C0E091B60181E08E0F8093B601B9
:100E40008091BB00F0E0EA56FE4F8083BDCF85EC79
:100E50008093BC001092F9018091B601803230F489
:100E6000E091B601F0E0EA56FE4F10826091B601C3
:100E700070E0E091B701F091B80186E991E0099541
:100E80001092B60136C084E08093F901109295016A
:100E900010929401E091B901F091BA010995809105
:100EA0009401811105C081E0809394011092740136
:100EB000E091950181E08E0F80939501F0E0EC5870
:100EC000FE4F80818093BB009091950180919401A9
:100ED000981708F479CF85E88093BC000AC085ECA8
:100EE0008093BC001092F90104C01092F7010E9497
:100EF0002603FF91EF91BF91AF919F918F917F91C9
:100F00006F915F914F913F912F910F900FBE0F9076
:100F10001F901895EEE1F2E01382128288EE93E0C2
:100F2000A0E0B0E084839583A683B78384E291E058
:100F300091838083EAE2F2E01382128286E391E0F9
:100F400091838083108A8FEF87871686118A87E2C4
:100F50008387148615861286118684E0828B82E050
:100F6000838B81E0848B80E1858B80E2868B80E4BB
:100F7000878B80E8808F40E050E063E0CF010C94E5
:100F8000FA01789484B5826084BD84B5816084BDA3
:100F900085B5826085BD85B5816085BD80916E0017
:100FA000816080936E001092810080918100826048
:100FB0008093810080918100816080938100809185
:100FC00080008160809380008091B1008460809374
:100FD000B1008091B00081608093B00080917A0070
:100FE000846080937A0080917A00826080937A0096
:100FF00080917A00816080937A0080917A00806885
:1010000080937A001092C10020E042E060E18AE221
:1010100092E00E946E0460E171E081E00E94230290
:1010200068E071E082E00E94230260E071E083E00A
:101030000E94230261E08DE00E9435013BE9232EEE
:10104000312C40E0C42E40E0D42E412C50EC552EE3
:1010500059E7652E54EC752E61E08DE00E94E800A2
:10106000ECE9F0E0D491E8E8F0E08491E82FF0E0DA
:10107000EE0FFF1FE859FF4F059114911092C50123
:101080001092C6011092C7011092C8011092C901B6
:1010900061E082E00E94350160E082E00E94E800A9
:1010A00061E070E080E090E00E94960161E082E003
:1010B0000E94E800C1010197F1F760E082E00E9420
:1010C000350180E991E0F80120812D2319F4019781
:1010D000D1F7D4C080E991E0F80120812D2319F0E7
:1010E0000197D1F7CBC098E2F92EC0E8E12C80E956
:1010F00091E0F80120812D2319F40197D1F7BEC0AA
:101100000E9471014B015C0180E991E0F8012081AE
:101110002D2319F00197D1F7B1C00E947101DC01B4
:10112000CB0188199909AA09BB098997A105B105BD
:1011300038F0EE2DF0E0E354FE4F80858C2B808755
:10114000C69511F4E394C0E8FA94F110D0CF61E0B1
:1011500082E00E94350161E082E00E94E800609137
:10116000C5017091C60176276727762780E090E059
:101170000E94840A2DEC3CEC4CEC5DE30E943B0B9E
:101180006093BD017093BE018093BF019093C00135
:10119000C091C7016C2F6F7770E0762F6627809122
:1011A000C801682B80E090E00E94840A2DEC3CECA2
:1011B0004CEC5DE30E943B0BC7FD09C06093C1018D
:1011C0007093C2018093C3019093C4010BC0DC01F2
:1011D000CB01B0588093C1019093C201A093C30189
:1011E000B093C40180E00E94500261E08AE292E084
:1011F0000E94100282E00E9450026091C101709131
:10120000C2018091C3019091C40141E00E94EF04AA
:1012100086E00E94500262E08AE292E00E941002A0
:1012200089E00E94500263E08AE292E00E9410028C
:101230008BE00E9450026091BD017091BE018091CF
:10124000BF019091C00141E00E94EF048FE00E9435
:10125000500282E591E00E94DD0460E08DE00E9492
:10126000E80068EE73E080E090E00E949601C1140F
:10127000D10409F4F1CE0E940000EECE4092BD01EF
:101280005092BE016092BF017092C0014092C101B4
:101290005092C2016092C3017092C401A3CFA1E237
:1012A0001A2EAA1BBB1BFD010DC0AA1FBB1FEE1FE0
:1012B000FF1FA217B307E407F50720F0A21BB30B2B
:1012C000E40BF50B661F771F881F991F1A9469F7A7
:1012D00060957095809590959B01AC01BD01CF0103
:1012E00008955058BB27AA270E9489090C94FC0A2C
:1012F0000E94EE0A38F00E94F50A20F039F49F3F70
:1013000019F426F40C94EB0A0EF4E095E7FB0C9428
:10131000E50AE92F0E940D0B58F3BA17620773070D
:101320008407950720F079F4A6F50C942F0B0EF4A2
:10133000E0950B2EBA2FA02D0B01B90190010C01E5
:10134000CA01A0011124FF27591B99F0593F50F4FD
:10135000503E68F11A16F040A22F232F342F442755
:10136000585FF3CF469537952795A795F04053954D
:10137000C9F77EF41F16BA0B620B730B840BBAF01D
:101380009150A1F0FF0FBB1F661F771F881FC2F788
:101390000EC0BA0F621F731F841F48F4879577959C
:1013A0006795B795F7959E3F08F0B0CF9395880F56
:1013B00008F09927EE0F9795879508950E94C10A26
:1013C00008F481E008950E94F7090C94FC0A0E9439
:1013D000F50A58F00E94EE0A40F029F45F3F29F028
:1013E0000C94E50A51110C94300B0C94EB0A0E94FA
:1013F0000D0B68F39923B1F3552391F3951B550B0E
:10140000BB27AA2762177307840738F09F5F5F4FD7
:10141000220F331F441FAA1FA9F335D00E2E3AF016
:10142000E0E832D091505040E695001CCAF72BD02E
:10143000FE2F29D0660F771F881FBB1F261737077F
:101440004807AB07B0E809F0BB0B802DBF01FF27B1
:1014500093585F4F3AF09E3F510578F00C94E50A9F
:101460000C94300B5F3FE4F3983ED4F38695779568
:101470006795B795F7959F5FC9F7880F911D96956A
:10148000879597F90895E1E0660F771F881FBB1FC6
:10149000621773078407BA0720F0621B730B840B73
:1014A000BA0BEE1F88F7E09508950E94150B88F09F
:1014B0009F5798F0B92F9927B751B0F0E1F0660F18
:1014C000771F881F991F1AF0BA95C9F714C0B13059
:1014D00091F00E942F0BB1E008950C942F0B672F11
:1014E000782F8827B85F39F0B93FCCF38695779588
:1014F0006795B395D9F73EF4909580957095619571
:101500007F4F8F4F9F4F0895E89409C097FB3EF49B
:1015100090958095709561957F4F8F4F9F4F992340
:10152000A9F0F92F96E9BB279395F69587957795BE
:101530006795B795F111F8CFFAF4BB0F11F460FF7E
:101540001BC06F5F7F4F8F4F9F4F16C0882311F0D6
:1015500096E911C0772321F09EE8872F762F05C0EA
:10156000662371F096E8862F70E060E02AF09A9585
:10157000660F771F881FDAF7880F9695879597F97A
:101580000895990F0008550FAA0BE0E8FEEF161614
:101590001706E807F907C0F012161306E407F50767
:1015A00098F0621B730B840B950B39F40A2661F0DB
:1015B000232B242B252B21F408950A2609F4A1407E
:1015C000A6958FEF811D811D089597F99F6780E88B
:1015D00070E060E008959FEF80EC089500240A9485
:1015E0001616170618060906089500240A941216FE
:1015F0001306140605060895092E0394000C11F431
:10160000882352F0BB0F40F4BF2B11F460FF04C0DD
:101610006F5F7F4F8F4F9F4F089557FD9058440F36
:10162000551F59F05F3F71F04795880F97FB991F41
:1016300061F09F3F79F087950895121613061406FE
:10164000551FF2CF4695F1DF08C01616170618068B
:10165000991FF1CF86957105610508940895E89466
:10166000BB2766277727CB0197F908950E94C10A07
:1016700008F48FEF08950E944E0B0C94FC0A0E9410
:10168000EE0A38F00E94F50A20F0952311F00C9430
:10169000E50A0C94EB0A11240C94300B0E940D0BFC
:1016A00070F3959FC1F3950F50E0551F629FF001B5
:1016B000729FBB27F00DB11D639FAA27F00DB11DCE
:1016C000AA1F649F6627B00DA11D661F829F222757
:1016D000B00DA11D621F739FB00DA11D621F839FDE
:1016E000A00D611D221F749F3327A00D611D231FB4
:1016F000849F600D211D822F762F6A2F11249F5702
:1017000050409AF0F1F088234AF0EE0FFF1FBB1F04
:10171000661F771F881F91505040A9F79E3F5105C3
:1017200080F00C94E50A0C94300B5F3FE4F3983E94
:10173000D4F3869577956795B795F795E7959F5F6D
:10174000C1F7FE2B880F911D9695879597F90895FF
:101750000E94C10A880B990B0895EE0FFF1F059098
:10176000F491E02D099481E090E0F8940C94B80B8A
:04177000F894FFCF1B
:1017740004040A0A1111110E0814080304040300D6
:10178400040A0A0E0E1F1F0E00401454004010508D
:1017940000000000B1038403DA0458037C036803E7
:1017A4005903000000001002D001DA04D9046E04C9
:1017B400FA01540435046E616E00696E66006F763A
:0417C4006600250096
:00000001FF
