:100000000C9458000C9480000C9480000C94800098
:100010000C9480000C9480000C9480000C94800060
:100020000C9480000C9480000C9480000C94800050
:100030000C9480000C9480000C9480000C94800040
:100040000C9451040C9480000C9480000C9480005B
:100050000C9480000C9480000C9480000C94800020
:100060000C949B040C9480000000000025002800E4
:100070002B00040404040404040402020202020229
:10008000030303030303010204081020408001025C
:1000900004081020010204081020000000080002DB
:1000A0000100000304070000000000000000C90573
:1000B00011241FBECFEFD8E0DEBFCDBF11E0A0E01E
:1000C000B1E0EAE9FDE002C005900D92AA33B10764
:1000D000D9F721E0AAE3B1E001C01D92AC3FB2071D
:1000E000E1F710E0C8E5D0E004C02197FE010E94CE
:1000F000C006C735D107C9F70E9400060C94CB068D
:100100000C9400002091D6019091D501213208F085
:100110004AC08091B2018111FCCF32E03093B2012C
:1001200031E03093B1013FEF3093B0011092AF0155
:100130002093AE01A5EBB1E04EE851E0FA013E2F6D
:10014000341B321718F43D913193F9CF10928D0181
:1001500020918D01990F922B90938D0190918C019C
:10016000913061F410928C0190918D019093BB00BD
:100170009091BC0093FDF8CF95EC01C095EE909363
:10018000BC009091B2019230E1F39091B0019F3F99
:1001900079F08091B001803241F08091B0018033DC
:1001A00031F084E005C081E003C082E001C083E05B
:1001B0001092B4011092D6011092B3010895CF921B
:1001C000DF92EF92FF920F931F93CF93DF936C0117
:1001D0007A018B01C0E0D0E0CE15DF0589F0D801AF
:1001E0006D918D01D601ED91FC910190F081E02D92
:1001F000C6010995892B11F47E0102C02196ECCF2E
:10020000C701DF91CF911F910F91FF90EF90DF9089
:10021000CF90089590E0FC01E656FF4F3491FC0129
:10022000EA57FF4F2491FC01EE58FF4FE491EE2373
:1002300009F43BC0332339F1333091F038F43130D5
:10024000A9F0323001F584B58F7D12C0373091F0BE
:100250003830A1F03430B9F4809180008F7D03C034
:10026000809180008F77809380000DC084B58F7758
:1002700084BD09C08091B0008F7703C08091B00029
:100280008F7D8093B000F0E0EE0FFF1FE859FF4F25
:10029000A591B4918FB7F894EC91611103C02095AA
:1002A0002E2301C02E2B2C938FBF08953FB7F894B7
:1002B0008091880190918901A0918A01B0918B0170
:1002C00026B5A89B05C02F3F19F00196A11DB11DB1
:1002D0003FBFBA2FA92F982F8827820F911DA11DEC
:1002E000B11DBC01CD0142E0660F771F881F991F29
:1002F0004A95D1F708958F929F92AF92BF92CF9275
:10030000DF92EF92FF926B017C010E9456014B013C
:100310005C01C114D104E104F104F1F00E94560122
:10032000DC01CB0188199909AA09BB09883E9340D1
:10033000A105B10570F321E0C21AD108E108F10866
:1003400088EE880E83E0981EA11CB11CC114D10454
:10035000E104F10419F7DDCFFF90EF90DF90CF902B
:10036000BF90AF909F908F90089521E001C0220F21
:100370006A95EAF7DC011C962C931C971A965C93FD
:100380004E931997ED91FC910484F585E02D60E082
:100390000994DC01ED91FC910684F785E02D41E0A4
:1003A000099581E090E00895DC01ED91FC910684CF
:1003B000F785E02D40E00994CF93DF93CDB7DEB70A
:1003C00028970FB6F894DEBF0FBECDBF1D8290E414
:1003D0009E8324E12F8324E5288719829A8390E164
:1003E0009B8390E59C832091EA01821710F08FEFA8
:1003F000820F3091EB0190E0FE01E80FF91F3031E0
:1004000021F4243011F4618101C06581606883EEBC
:1004100091E028960FB6F894DEBF0FBECDBFDF91F6
:10042000CF910C94D4010F931F93CF93DF93EC01E2
:10043000423018F08C8188608C834F836887222338
:1004400029F0413019F48C8184608C8364E670E07B
:1004500080E090E00E947B016C8164FD31C0E88106
:10046000F9810684F785E02D42E063E0CE0109952D
:100470008BE496E40197F1F7E881F9810684F7852A
:10048000E02D42E063E0CE01099503E512E0C801EA
:100490000197F1F7E881F9810684F785E02D42E0C4
:1004A00063E0CE010995C8010197F1F7E881F98170
:1004B0000684F785E02D42E062E0CE01099517C081
:1004C0006062CE010E94D4018BE496E40197F1F7BB
:1004D0006C816062CE010E94D40103E512E0C80184
:1004E0000197F1F76C816062CE010E94D401C801CE
:1004F0000197F1F76C816062CE010E94D4018BEE0E
:1005000090E00197F1F784E08D836CE0CE010E94CA
:10051000D40161E0CE010E94D4018BE39FE10197F9
:10052000F1F782E08E8366E0CE010E94D401E8817B
:10053000F9810484F585E02D6FEFCE01DF91CF9135
:100540001F910F9109940895089585ED8093BC0043
:100550008091BC0084FDFCCF1092B20108954091BF
:100560005C01262F30E0240F311D21323105DCF4EF
:100570002091B2012430C9F4FC0180E090E086179C
:1005800058F430915C012191DC01A65CBE4FA30FB1
:10059000B11D2C930196F3CF80915C01680F60939D
:1005A0005C0180E0089581E0089582E00895089557
:1005B00081E090E03091820120918101321710F4A6
:1005C00080E090E091958195910908958091820154
:1005D00090918101891730F48F5F8093820180E0D0
:1005E00090E008958FEF9FEF08958091810190E052
:1005F00020918201821B91090895CF92DF92EF92A0
:10060000FF920F931F93CF93DF937C01262F972F99
:100610008A018091B301882391F0C62FD72F6E01F4
:10062000C40ED51ECC15DD0571F06991D701ED9191
:10063000FC910190F081E02DC7010995F3CF642F63
:10064000822F0E94AF02C801DF91CF911F910F91BD
:10065000FF90EF90DF90CF900895CF93DF931F929C
:10066000CDB7DEB769832091B3012223D1F0209169
:10067000D601203240F021E030E0FC0133832283B8
:1006800080E090E015C08091B401E82FF0E0EB54D9
:10069000FE4F998190838F5F8093B4018093D60140
:1006A00005C061E0CE0101960E94AF0281E090E0BA
:1006B0000F90DF91CF910895FC0123812223B9F09F
:1006C0009181909569236083828191E09093B30139
:1006D0008093D5011092B4011092D60187ED91E07C
:1006E0000E942D030E948200282F30E002C020E0EB
:1006F00030E081E090E0232B11F080E090E008955D
:10070000EF92FF920F931F93CF938C01FC0175968C
:1007100084E0C0E060FF02C09081C92B66958150E3
:1007200031968111F7CF413011F4F8014489F80175
:100730008585C82BC42B7801FEE0EF0EF11CF80173
:1007400062896C2BC7010E945C03F8016289609585
:100750006C23C701CF911F910F91FF90EF900C94E4
:100760005C030F931F93CF93DF93062F0F704230DC
:1007700019F440E0602F10C0142F262FEC0130E058
:10078000B90184E0759567958A95E1F7CE010E94DD
:100790008003412F602FCE01DF91CF911F910F91E8
:1007A0000C948003FC0184858823A9F0218532857F
:1007B0002115310519F4611106C007C0213031053A
:1007C00021F4611102C0858701C015866585CF01BE
:1007D0000E960C945C030895EF92FF920F931F9373
:1007E000CF93DF93EC01062FF42EE22E8B85888BBE
:1007F00010928201109281011092B4011092D601E0
:100800001092B20111E01093B10110928C0161E0DD
:1008100082E10E940A0161E083E10E940A01809165
:10082000B9008E7F8093B9008091B9008D7F80934D
:10083000B90088E48093B80085E48093BC0088897F
:100840001093B3018093D5011092B4011092D60198
:100850000E94820091E0811190E0998B992329F008
:1008600087ED91E00E94E6028E878989882339F01E
:100870001F861C8260E0CE010E960E945C032E2D26
:100880004F2D602FCE01DF91CF911F910F91FF90DF
:10089000EF900C941302089580E090E008950E9478
:1008A000C6061F920F920FB60F9211242F933F93FB
:1008B0008F939F93AF93BF93809184019091850113
:1008C000A0918601B09187013091830123E0230F2D
:1008D0002D3720F40196A11DB11D05C026E8230F78
:1008E0000296A11DB11D20938301809384019093F2
:1008F0008501A0938601B093870180918801909132
:100900008901A0918A01B0918B010196A11DB11DB1
:100910008093880190938901A0938A01B0938B0101
:10092000BF91AF919F918F913F912F910F900FBEEB
:100930000F901F9018951F920F920FB60F921124CF
:100940002F933F934F935F936F937F938F939F93D7
:10095000AF93BF93EF93FF938091B900887F803668
:1009600009F49CC068F5883209F45BC090F48031CA
:1009700009F454C038F4882309F4F6C0883009F427
:100980004DC0F6C0883109F44CC0803209F45DC016
:10099000EFC0803409F468C048F4803309F455C0CE
:1009A000883309F0E5C08093B001D8C0803509F4E0
:1009B0004FC0883509F45DC0883409F0D9C0D6C06D
:1009C000883909F4C7C0A8F4883709F467C038F437
:1009D000883609F463C0803709F460C0C9C088381C
:1009E00009F4B8C0803909F45FC0803809F0C0C08C
:1009F0005BC0803B09F486C038F4803A09F466C0D5
:100A0000883A09F47FC0B4C0803C09F4A7C0883C90
:100A100009F4A4C0883B09F48AC0AAC080918D0162
:100A200010C09091AF018091AE01981770F5E091E0
:100A3000AF0181E08E0F8093AF01F0E0E257FE4FEF
:100A400080818093BB0085EC86C08093B0018EC00E
:100A5000E091AF0181E08E0F8093AF018091BB00E8
:100A6000F0E0E257FE4F80839091AF018091AE019C
:100A70006EC0E091AF0181E08E0F8093AF01809155
:100A8000BB00F0E0E257FE4F80838091B1018111FD
:100A90006DC081E080938C0184EA61C083E0809323
:100AA000B20110928001CFCF80918001803208F096
:100AB00051C0E091800181E08E0F80938001809190
:100AC000BB00F0E0E05AFE4F8083BDCF85EC809301
:100AD000BC001092B20180918001803230F4E0912C
:100AE0008001F0E0E05AFE4F10826091800170E0DA
:100AF000E0915E01F0915F0180E691E0099510922E
:100B0000800136C084E08093B20110925D011092A2
:100B10005C01E0915A01F0915B01099580915C01C3
:100B2000811105C081E080935C0110923A01E0914F
:100B30005D0181E08E0F80935D01F0E0E65CFE4F89
:100B400080818093BB0090915D0180915C0198173A
:100B500008F479CF85E88093BC000AC085EC8093C7
:100B6000BC001092B20104C01092B0010E94A50214
:100B7000FF91EF91BF91AF919F918F917F916F9175
:100B80005F914F913F912F910F900FBE0F901F904B
:100B90001895E7EDF1E01382128288EE93E0A0E071
:100BA000B0E084839583A683B78384E091E091834A
:100BB0008083E3EEF1E01382128286E191E091837B
:100BC0008083108A8FEF87871686118A87E2838752
:100BD000148615861286118684E0828B82E0838BD0
:100BE00081E0848B80E1858B80E2868B80E4878B3B
:100BF00080E8808F40E050E063E0CF010C94B501C5
:100C0000789484B5826084BD84B5816084BD85B5E7
:100C1000826085BD85B5816085BD80916E008160F3
:100C200080936E0010928100809181008260809399
:100C3000810080918100816080938100809180009B
:100C40008160809380008091B10084608093B100C6
:100C50008091B00081608093B00080917A008460C0
:100C600080937A0080917A00826080937A008091EC
:100C70007A00816080937A0080917A008068809306
:100C80007A001092C10020E042E060E183EE91E042
:100C90000E94EC03E091E301F091E4010484F58506
:100CA000E02D6FEF83EE91E0099580E00E94DC017A
:100CB0004FE050E066E271E083EE91E00E94DF00D9
:100CC00081E00E94DC0143E050E066E371E083EEE6
:100CD00091E00E94DF006091E801862F826080939E
:100CE000E8016A6083EE91E00E94D401C0E0D0E0A8
:100CF0006091E8016B7F6093E801686083EE91E0AA
:100D00000E94D40164EF71E080E090E00E947B01DA
:100D10006091E801862F84608093E8016C6083EE27
:100D200091E00E94D40164EF71E080E090E00E94C5
:100D30007B016091E8016D7F6093E801686083EE5C
:100D400091E00E94D40164EF71E080E090E00E94A5
:100D50007B016091E801862F82608093E8016A60E0
:100D600083EE91E00E94D40164EF71E080E090E0B6
:100D70000E947B01209709F4BBCF0E940000B8CFEE
:100D8000EE0FFF1F0590F491E02D099481E090E0B3
:0A0D9000F8940C94CB06F894FFCF02
:100D9A00000000002D03FD024C04D702F502E60212
:100DAA00D80200000000C901DF004C044B04EC0328
:100DBA00B501D203B1034A616B7562204D61636864
:0A0DCA006F77736B69005A4F490000
:107E0000112484B714BE81FFF0D085E080938100F7
:107E100082E08093C00088E18093C10086E0809377
:107E2000C20080E18093C4008EE0C9D0259A86E02C
:107E300020E33CEF91E0309385002093840096BBD3
:107E4000B09BFECF1D9AA8958150A9F7CC24DD24C4
:107E500088248394B5E0AB2EA1E19A2EF3E0BF2EE7
:107E6000A2D0813461F49FD0082FAFD0023811F036
:107E7000013811F484E001C083E08DD089C08234E0
:107E800011F484E103C0853419F485E0A6D080C0E4
:107E9000853579F488D0E82EFF2485D0082F10E0AE
:107EA000102F00270E291F29000F111F8ED06801E7
:107EB0006FC0863521F484E090D080E0DECF843638
:107EC00009F040C070D06FD0082F6DD080E0C81688
:107ED00080E7D80618F4F601B7BEE895C0E0D1E017
:107EE00062D089930C17E1F7F0E0CF16F0E7DF06D8
:107EF00018F0F601B7BEE89568D007B600FCFDCFD4
:107F0000A601A0E0B1E02C9130E011968C91119780
:107F100090E0982F8827822B932B1296FA010C0160
:107F200087BEE89511244E5F5F4FF1E0A038BF0790
:107F300051F7F601A7BEE89507B600FCFDCF97BE46
:107F4000E89526C08437B1F42ED02DD0F82E2BD052
:107F50003CD0F601EF2C8F010F5F1F4F84911BD097
:107F6000EA94F801C1F70894C11CD11CFA94CF0C13
:107F7000D11C0EC0853739F428D08EE10CD085E9AC
:107F80000AD08FE07ACF813511F488E018D01DD067
:107F900080E101D065CF982F8091C00085FFFCCF94
:107FA0009093C60008958091C00087FFFCCF809118
:107FB000C00084FD01C0A8958091C6000895E0E648
:107FC000F0E098E1908380830895EDDF803219F02E
:107FD00088E0F5DFFFCF84E1DECF1F93182FE3DFCA
:107FE0001150E9F7F2DF1F91089580E0E8DFEE27F6
:047FF000FF270994CA
:027FFE00040479
:0400000300007E007B
:00000001FF
